{
  "_format": "hh-sol-artifact-1",
  "contractName": "NFTMarketplace",
  "sourceName": "contracts/NFTMarketplace.sol",
  "abi": [
    {
      "inputs": [],
      "stateMutability": "nonpayable",
      "type": "constructor"
    },
    {
      "anonymous": false,
      "inputs": [
        {
          "indexed": true,
          "internalType": "address",
          "name": "owner",
          "type": "address"
        },
        {
          "indexed": true,
          "internalType": "address",
          "name": "approved",
          "type": "address"
        },
        {
          "indexed": true,
          "internalType": "uint256",
          "name": "tokenId",
          "type": "uint256"
        }
      ],
      "name": "Approval",
      "type": "event"
    },
    {
      "anonymous": false,
      "inputs": [
        {
          "indexed": true,
          "internalType": "address",
          "name": "owner",
          "type": "address"
        },
        {
          "indexed": true,
          "internalType": "address",
          "name": "operator",
          "type": "address"
        },
        {
          "indexed": false,
          "internalType": "bool",
          "name": "approved",
          "type": "bool"
        }
      ],
      "name": "ApprovalForAll",
      "type": "event"
    },
    {
      "anonymous": false,
      "inputs": [
        {
          "indexed": false,
          "internalType": "uint256",
          "name": "_fromTokenId",
          "type": "uint256"
        },
        {
          "indexed": false,
          "internalType": "uint256",
          "name": "_toTokenId",
          "type": "uint256"
        }
      ],
      "name": "BatchMetadataUpdate",
      "type": "event"
    },
    {
      "anonymous": false,
      "inputs": [
        {
          "indexed": false,
          "internalType": "uint256",
          "name": "_tokenId",
          "type": "uint256"
        }
      ],
      "name": "MetadataUpdate",
      "type": "event"
    },
    {
      "anonymous": false,
      "inputs": [
        {
          "indexed": true,
          "internalType": "address",
          "name": "previousOwner",
          "type": "address"
        },
        {
          "indexed": true,
          "internalType": "address",
          "name": "newOwner",
          "type": "address"
        }
      ],
      "name": "OwnershipTransferred",
      "type": "event"
    },
    {
      "anonymous": false,
      "inputs": [
        {
          "indexed": true,
          "internalType": "address",
          "name": "from",
          "type": "address"
        },
        {
          "indexed": true,
          "internalType": "address",
          "name": "to",
          "type": "address"
        },
        {
          "indexed": true,
          "internalType": "uint256",
          "name": "tokenId",
          "type": "uint256"
        }
      ],
      "name": "Transfer",
      "type": "event"
    },
    {
      "inputs": [
        {
          "internalType": "address",
          "name": "to",
          "type": "address"
        },
        {
          "internalType": "uint256",
          "name": "tokenId",
          "type": "uint256"
        }
      ],
      "name": "approve",
      "outputs": [],
      "stateMutability": "nonpayable",
      "type": "function"
    },
    {
      "inputs": [
        {
          "internalType": "address",
          "name": "owner",
          "type": "address"
        }
      ],
      "name": "balanceOf",
      "outputs": [
        {
          "internalType": "uint256",
          "name": "",
          "type": "uint256"
        }
      ],
      "stateMutability": "view",
      "type": "function"
    },
    {
      "inputs": [
        {
          "internalType": "uint256",
          "name": "tokenId",
          "type": "uint256"
        }
      ],
      "name": "buyNFT",
      "outputs": [],
      "stateMutability": "payable",
      "type": "function"
    },
    {
      "inputs": [
        {
          "internalType": "uint256",
          "name": "tokenId",
          "type": "uint256"
        }
      ],
      "name": "getApproved",
      "outputs": [
        {
          "internalType": "address",
          "name": "",
          "type": "address"
        }
      ],
      "stateMutability": "view",
      "type": "function"
    },
    {
      "inputs": [
        {
          "internalType": "address",
          "name": "owner",
          "type": "address"
        },
        {
          "internalType": "address",
          "name": "operator",
          "type": "address"
        }
      ],
      "name": "isApprovedForAll",
      "outputs": [
        {
          "internalType": "bool",
          "name": "",
          "type": "bool"
        }
      ],
      "stateMutability": "view",
      "type": "function"
    },
    {
      "inputs": [
        {
          "internalType": "string",
          "name": "tokenURI",
          "type": "string"
        },
        {
          "internalType": "uint256",
          "name": "price",
          "type": "uint256"
        }
      ],
      "name": "mintNFT",
      "outputs": [
        {
          "internalType": "uint256",
          "name": "",
          "type": "uint256"
        }
      ],
      "stateMutability": "nonpayable",
      "type": "function"
    },
    {
      "inputs": [],
      "name": "name",
      "outputs": [
        {
          "internalType": "string",
          "name": "",
          "type": "string"
        }
      ],
      "stateMutability": "view",
      "type": "function"
    },
    {
      "inputs": [
        {
          "internalType": "uint256",
          "name": "",
          "type": "uint256"
        }
      ],
      "name": "nftPrices",
      "outputs": [
        {
          "internalType": "uint256",
          "name": "",
          "type": "uint256"
        }
      ],
      "stateMutability": "view",
      "type": "function"
    },
    {
      "inputs": [],
      "name": "owner",
      "outputs": [
        {
          "internalType": "address",
          "name": "",
          "type": "address"
        }
      ],
      "stateMutability": "view",
      "type": "function"
    },
    {
      "inputs": [
        {
          "internalType": "uint256",
          "name": "tokenId",
          "type": "uint256"
        }
      ],
      "name": "ownerOf",
      "outputs": [
        {
          "internalType": "address",
          "name": "",
          "type": "address"
        }
      ],
      "stateMutability": "view",
      "type": "function"
    },
    {
      "inputs": [],
      "name": "renounceOwnership",
      "outputs": [],
      "stateMutability": "nonpayable",
      "type": "function"
    },
    {
      "inputs": [
        {
          "internalType": "address",
          "name": "from",
          "type": "address"
        },
        {
          "internalType": "address",
          "name": "to",
          "type": "address"
        },
        {
          "internalType": "uint256",
          "name": "tokenId",
          "type": "uint256"
        }
      ],
      "name": "safeTransferFrom",
      "outputs": [],
      "stateMutability": "nonpayable",
      "type": "function"
    },
    {
      "inputs": [
        {
          "internalType": "address",
          "name": "from",
          "type": "address"
        },
        {
          "internalType": "address",
          "name": "to",
          "type": "address"
        },
        {
          "internalType": "uint256",
          "name": "tokenId",
          "type": "uint256"
        },
        {
          "internalType": "bytes",
          "name": "data",
          "type": "bytes"
        }
      ],
      "name": "safeTransferFrom",
      "outputs": [],
      "stateMutability": "nonpayable",
      "type": "function"
    },
    {
      "inputs": [
        {
          "internalType": "address",
          "name": "operator",
          "type": "address"
        },
        {
          "internalType": "bool",
          "name": "approved",
          "type": "bool"
        }
      ],
      "name": "setApprovalForAll",
      "outputs": [],
      "stateMutability": "nonpayable",
      "type": "function"
    },
    {
      "inputs": [
        {
          "internalType": "bytes4",
          "name": "interfaceId",
          "type": "bytes4"
        }
      ],
      "name": "supportsInterface",
      "outputs": [
        {
          "internalType": "bool",
          "name": "",
          "type": "bool"
        }
      ],
      "stateMutability": "view",
      "type": "function"
    },
    {
      "inputs": [],
      "name": "symbol",
      "outputs": [
        {
          "internalType": "string",
          "name": "",
          "type": "string"
        }
      ],
      "stateMutability": "view",
      "type": "function"
    },
    {
      "inputs": [
        {
          "internalType": "uint256",
          "name": "tokenId",
          "type": "uint256"
        }
      ],
      "name": "tokenURI",
      "outputs": [
        {
          "internalType": "string",
          "name": "",
          "type": "string"
        }
      ],
      "stateMutability": "view",
      "type": "function"
    },
    {
      "inputs": [
        {
          "internalType": "address",
          "name": "from",
          "type": "address"
        },
        {
          "internalType": "address",
          "name": "to",
          "type": "address"
        },
        {
          "internalType": "uint256",
          "name": "tokenId",
          "type": "uint256"
        }
      ],
      "name": "transferFrom",
      "outputs": [],
      "stateMutability": "nonpayable",
      "type": "function"
    },
    {
      "inputs": [
        {
          "internalType": "address",
          "name": "newOwner",
          "type": "address"
        }
      ],
      "name": "transferOwnership",
      "outputs": [],
      "stateMutability": "nonpayable",
      "type": "function"
    }
  ],
  "bytecode": "0x60806040523480156200001157600080fd5b506040518060400160405280600f81526020017f4e4654204d61726b6574706c61636500000000000000000000000000000000008152506040518060400160405280600481526020017f4e46544d0000000000000000000000000000000000000000000000000000000081525081600090816200008f919062000412565b508060019081620000a1919062000412565b505050620000c4620000b8620000ca60201b60201c565b620000d260201b60201c565b620004f9565b600033905090565b6000600760009054906101000a900473ffffffffffffffffffffffffffffffffffffffff16905081600760006101000a81548173ffffffffffffffffffffffffffffffffffffffff021916908373ffffffffffffffffffffffffffffffffffffffff1602179055508173ffffffffffffffffffffffffffffffffffffffff168173ffffffffffffffffffffffffffffffffffffffff167f8be0079c531659141344cd1fd0a4f28419497f9722a3daafe3b4186f6b6457e060405160405180910390a35050565b600081519050919050565b7f4e487b7100000000000000000000000000000000000000000000000000000000600052604160045260246000fd5b7f4e487b7100000000000000000000000000000000000000000000000000000000600052602260045260246000fd5b600060028204905060018216806200021a57607f821691505b60208210810362000230576200022f620001d2565b5b50919050565b60008190508160005260206000209050919050565b60006020601f8301049050919050565b600082821b905092915050565b6000600883026200029a7fffffffffffffffffffffffffffffffffffffffffffffffffffffffffffffffff826200025b565b620002a686836200025b565b95508019841693508086168417925050509392505050565b6000819050919050565b6000819050919050565b6000620002f3620002ed620002e784620002be565b620002c8565b620002be565b9050919050565b6000819050919050565b6200030f83620002d2565b620003276200031e82620002fa565b84845462000268565b825550505050565b600090565b6200033e6200032f565b6200034b81848462000304565b505050565b5b8181101562000373576200036760008262000334565b60018101905062000351565b5050565b601f821115620003c2576200038c8162000236565b62000397846200024b565b81016020851015620003a7578190505b620003bf620003b6856200024b565b83018262000350565b50505b505050565b600082821c905092915050565b6000620003e760001984600802620003c7565b1980831691505092915050565b6000620004028383620003d4565b9150826002028217905092915050565b6200041d8262000198565b67ffffffffffffffff811115620004395762000438620001a3565b5b62000445825462000201565b6200045282828562000377565b600060209050601f8311600181146200048a576000841562000475578287015190505b620004818582620003f4565b865550620004f1565b601f1984166200049a8662000236565b60005b82811015620004c4578489015182556001820191506020850194506020810190506200049d565b86831015620004e45784890151620004e0601f891682620003d4565b8355505b6001600288020188555050505b505050505050565b61313680620005096000396000f3fe6080604052600436106101145760003560e01c806370a08231116100a0578063b88d4fde11610064578063b88d4fde146103a2578063c87b56dd146103cb578063d9f10a2b14610408578063e985e9c514610445578063f2fde38b1461048257610114565b806370a08231146102cf578063715018a61461030c5780638da5cb5b1461032357806395d89b411461034e578063a22cb4651461037957610114565b806323b872dd116100e757806323b872dd146101e757806342842e0e1461021057806351ed8288146102395780635afa3a72146102555780636352211e1461029257610114565b806301ffc9a71461011957806306fdde0314610156578063081812fc14610181578063095ea7b3146101be575b600080fd5b34801561012557600080fd5b50610140600480360381019061013b9190611e44565b6104ab565b60405161014d9190611e8c565b60405180910390f35b34801561016257600080fd5b5061016b61050c565b6040516101789190611f37565b60405180910390f35b34801561018d57600080fd5b506101a860048036038101906101a39190611f8f565b61059e565b6040516101b59190611ffd565b60405180910390f35b3480156101ca57600080fd5b506101e560048036038101906101e09190612044565b6105e4565b005b3480156101f357600080fd5b5061020e60048036038101906102099190612084565b6106fb565b005b34801561021c57600080fd5b5061023760048036038101906102329190612084565b61075b565b005b610253600480360381019061024e9190611f8f565b61077b565b005b34801561026157600080fd5b5061027c6004803603810190610277919061220c565b610834565b6040516102899190612277565b60405180910390f35b34801561029e57600080fd5b506102b960048036038101906102b49190611f8f565b61088b565b6040516102c69190611ffd565b60405180910390f35b3480156102db57600080fd5b506102f660048036038101906102f19190612292565b610911565b6040516103039190612277565b60405180910390f35b34801561031857600080fd5b506103216109c8565b005b34801561032f57600080fd5b506103386109dc565b6040516103459190611ffd565b60405180910390f35b34801561035a57600080fd5b50610363610a06565b6040516103709190611f37565b60405180910390f35b34801561038557600080fd5b506103a0600480360381019061039b91906122eb565b610a98565b005b3480156103ae57600080fd5b506103c960048036038101906103c491906123cc565b610aae565b005b3480156103d757600080fd5b506103f260048036038101906103ed9190611f8f565b610b10565b6040516103ff9190611f37565b60405180910390f35b34801561041457600080fd5b5061042f600480360381019061042a9190611f8f565b610c22565b60405161043c9190612277565b60405180910390f35b34801561045157600080fd5b5061046c6004803603810190610467919061244f565b610c3a565b6040516104799190611e8c565b60405180910390f35b34801561048e57600080fd5b506104a960048036038101906104a49190612292565b610cce565b005b6000634906490660e01b7bffffffffffffffffffffffffffffffffffffffffffffffffffffffff1916827bffffffffffffffffffffffffffffffffffffffffffffffffffffffff19161480610505575061050482610d51565b5b9050919050565b60606000805461051b906124be565b80601f0160208091040260200160405190810160405280929190818152602001828054610547906124be565b80156105945780601f1061056957610100808354040283529160200191610594565b820191906000526020600020905b81548152906001019060200180831161057757829003601f168201915b5050505050905090565b60006105a982610e33565b6004600083815260200190815260200160002060009054906101000a900473ffffffffffffffffffffffffffffffffffffffff169050919050565b60006105ef8261088b565b90508073ffffffffffffffffffffffffffffffffffffffff168373ffffffffffffffffffffffffffffffffffffffff160361065f576040517f08c379a000000000000000000000000000000000000000000000000000000000815260040161065690612561565b60405180910390fd5b8073ffffffffffffffffffffffffffffffffffffffff1661067e610e7e565b73ffffffffffffffffffffffffffffffffffffffff1614806106ad57506106ac816106a7610e7e565b610c3a565b5b6106ec576040517f08c379a00000000000000000000000000000000000000000000000000000000081526004016106e3906125f3565b60405180910390fd5b6106f68383610e86565b505050565b61070c610706610e7e565b82610f3f565b61074b576040517f08c379a000000000000000000000000000000000000000000000000000000000815260040161074290612685565b60405180910390fd5b610756838383610fd4565b505050565b61077683838360405180602001604052806000815250610aae565b505050565b60096000828152602001908152602001600020543410156107d1576040517f08c379a00000000000000000000000000000000000000000000000000000000081526004016107c8906126f1565b60405180910390fd5b60006107dc8261088b565b90506107e9813384610fd4565b8073ffffffffffffffffffffffffffffffffffffffff166108fc349081150290604051600060405180830381858888f1935050505015801561082f573d6000803e3d6000fd5b505050565b60006008600081548092919061084990612740565b91905055506000600854905061085f33826112cd565b61086981856114ea565b8260096000838152602001908152602001600020819055508091505092915050565b6000806108978361158e565b9050600073ffffffffffffffffffffffffffffffffffffffff168173ffffffffffffffffffffffffffffffffffffffff1603610908576040517f08c379a00000000000000000000000000000000000000000000000000000000081526004016108ff906127d4565b60405180910390fd5b80915050919050565b60008073ffffffffffffffffffffffffffffffffffffffff168273ffffffffffffffffffffffffffffffffffffffff1603610981576040517f08c379a000000000000000000000000000000000000000000000000000000000815260040161097890612866565b60405180910390fd5b600360008373ffffffffffffffffffffffffffffffffffffffff1673ffffffffffffffffffffffffffffffffffffffff168152602001908152602001600020549050919050565b6109d06115cb565b6109da6000611649565b565b6000600760009054906101000a900473ffffffffffffffffffffffffffffffffffffffff16905090565b606060018054610a15906124be565b80601f0160208091040260200160405190810160405280929190818152602001828054610a41906124be565b8015610a8e5780601f10610a6357610100808354040283529160200191610a8e565b820191906000526020600020905b815481529060010190602001808311610a7157829003601f168201915b5050505050905090565b610aaa610aa3610e7e565b838361170f565b5050565b610abf610ab9610e7e565b83610f3f565b610afe576040517f08c379a0000000000000000000000000000000000000000000000000000000008152600401610af590612685565b60405180910390fd5b610b0a8484848461187b565b50505050565b6060610b1b82610e33565b6000600660008481526020019081526020016000208054610b3b906124be565b80601f0160208091040260200160405190810160405280929190818152602001828054610b67906124be565b8015610bb45780601f10610b8957610100808354040283529160200191610bb4565b820191906000526020600020905b815481529060010190602001808311610b9757829003601f168201915b505050505090506000610bc56118d7565b90506000815103610bda578192505050610c1d565b600082511115610c0f578082604051602001610bf79291906128c2565b60405160208183030381529060405292505050610c1d565b610c18846118ee565b925050505b919050565b60096020528060005260406000206000915090505481565b6000600560008473ffffffffffffffffffffffffffffffffffffffff1673ffffffffffffffffffffffffffffffffffffffff16815260200190815260200160002060008373ffffffffffffffffffffffffffffffffffffffff1673ffffffffffffffffffffffffffffffffffffffff16815260200190815260200160002060009054906101000a900460ff16905092915050565b610cd66115cb565b600073ffffffffffffffffffffffffffffffffffffffff168173ffffffffffffffffffffffffffffffffffffffff1603610d45576040517f08c379a0000000000000000000000000000000000000000000000000000000008152600401610d3c90612958565b60405180910390fd5b610d4e81611649565b50565b60007f80ac58cd000000000000000000000000000000000000000000000000000000007bffffffffffffffffffffffffffffffffffffffffffffffffffffffff1916827bffffffffffffffffffffffffffffffffffffffffffffffffffffffff19161480610e1c57507f5b5e139f000000000000000000000000000000000000000000000000000000007bffffffffffffffffffffffffffffffffffffffffffffffffffffffff1916827bffffffffffffffffffffffffffffffffffffffffffffffffffffffff1916145b80610e2c5750610e2b82611956565b5b9050919050565b610e3c816119c0565b610e7b576040517f08c379a0000000000000000000000000000000000000000000000000000000008152600401610e72906127d4565b60405180910390fd5b50565b600033905090565b816004600083815260200190815260200160002060006101000a81548173ffffffffffffffffffffffffffffffffffffffff021916908373ffffffffffffffffffffffffffffffffffffffff160217905550808273ffffffffffffffffffffffffffffffffffffffff16610ef98361088b565b73ffffffffffffffffffffffffffffffffffffffff167f8c5be1e5ebec7d5bd14f71427d1e84f3dd0314c0f7b2291e5b200ac8c7c3b92560405160405180910390a45050565b600080610f4b8361088b565b90508073ffffffffffffffffffffffffffffffffffffffff168473ffffffffffffffffffffffffffffffffffffffff161480610f8d5750610f8c8185610c3a565b5b80610fcb57508373ffffffffffffffffffffffffffffffffffffffff16610fb38461059e565b73ffffffffffffffffffffffffffffffffffffffff16145b91505092915050565b8273ffffffffffffffffffffffffffffffffffffffff16610ff48261088b565b73ffffffffffffffffffffffffffffffffffffffff161461104a576040517f08c379a0000000000000000000000000000000000000000000000000000000008152600401611041906129ea565b60405180910390fd5b600073ffffffffffffffffffffffffffffffffffffffff168273ffffffffffffffffffffffffffffffffffffffff16036110b9576040517f08c379a00000000000000000000000000000000000000000000000000000000081526004016110b090612a7c565b60405180910390fd5b6110c68383836001611a01565b8273ffffffffffffffffffffffffffffffffffffffff166110e68261088b565b73ffffffffffffffffffffffffffffffffffffffff161461113c576040517f08c379a0000000000000000000000000000000000000000000000000000000008152600401611133906129ea565b60405180910390fd5b6004600082815260200190815260200160002060006101000a81549073ffffffffffffffffffffffffffffffffffffffff02191690556001600360008573ffffffffffffffffffffffffffffffffffffffff1673ffffffffffffffffffffffffffffffffffffffff168152602001908152602001600020600082825403925050819055506001600360008473ffffffffffffffffffffffffffffffffffffffff1673ffffffffffffffffffffffffffffffffffffffff16815260200190815260200160002060008282540192505081905550816002600083815260200190815260200160002060006101000a81548173ffffffffffffffffffffffffffffffffffffffff021916908373ffffffffffffffffffffffffffffffffffffffff160217905550808273ffffffffffffffffffffffffffffffffffffffff168473ffffffffffffffffffffffffffffffffffffffff167fddf252ad1be2c89b69c2b068fc378daa952ba7f163c4a11628f55a4df523b3ef60405160405180910390a46112c88383836001611a07565b505050565b600073ffffffffffffffffffffffffffffffffffffffff168273ffffffffffffffffffffffffffffffffffffffff160361133c576040517f08c379a000000000000000000000000000000000000000000000000000000000815260040161133390612ae8565b60405180910390fd5b611345816119c0565b15611385576040517f08c379a000000000000000000000000000000000000000000000000000000000815260040161137c90612b54565b60405180910390fd5b611393600083836001611a01565b61139c816119c0565b156113dc576040517f08c379a00000000000000000000000000000000000000000000000000000000081526004016113d390612b54565b60405180910390fd5b6001600360008473ffffffffffffffffffffffffffffffffffffffff1673ffffffffffffffffffffffffffffffffffffffff16815260200190815260200160002060008282540192505081905550816002600083815260200190815260200160002060006101000a81548173ffffffffffffffffffffffffffffffffffffffff021916908373ffffffffffffffffffffffffffffffffffffffff160217905550808273ffffffffffffffffffffffffffffffffffffffff16600073ffffffffffffffffffffffffffffffffffffffff167fddf252ad1be2c89b69c2b068fc378daa952ba7f163c4a11628f55a4df523b3ef60405160405180910390a46114e6600083836001611a07565b5050565b6114f3826119c0565b611532576040517f08c379a000000000000000000000000000000000000000000000000000000000815260040161152990612be6565b60405180910390fd5b806006600084815260200190815260200160002090816115529190612db2565b507ff8e1a15aba9398e019f0b49df1a4fde98ee17ae345cb5f6b5e2c27f5033e8ce7826040516115829190612277565b60405180910390a15050565b60006002600083815260200190815260200160002060009054906101000a900473ffffffffffffffffffffffffffffffffffffffff169050919050565b6115d3610e7e565b73ffffffffffffffffffffffffffffffffffffffff166115f16109dc565b73ffffffffffffffffffffffffffffffffffffffff1614611647576040517f08c379a000000000000000000000000000000000000000000000000000000000815260040161163e90612ed0565b60405180910390fd5b565b6000600760009054906101000a900473ffffffffffffffffffffffffffffffffffffffff16905081600760006101000a81548173ffffffffffffffffffffffffffffffffffffffff021916908373ffffffffffffffffffffffffffffffffffffffff1602179055508173ffffffffffffffffffffffffffffffffffffffff168173ffffffffffffffffffffffffffffffffffffffff167f8be0079c531659141344cd1fd0a4f28419497f9722a3daafe3b4186f6b6457e060405160405180910390a35050565b8173ffffffffffffffffffffffffffffffffffffffff168373ffffffffffffffffffffffffffffffffffffffff160361177d576040517f08c379a000000000000000000000000000000000000000000000000000000000815260040161177490612f3c565b60405180910390fd5b80600560008573ffffffffffffffffffffffffffffffffffffffff1673ffffffffffffffffffffffffffffffffffffffff16815260200190815260200160002060008473ffffffffffffffffffffffffffffffffffffffff1673ffffffffffffffffffffffffffffffffffffffff16815260200190815260200160002060006101000a81548160ff0219169083151502179055508173ffffffffffffffffffffffffffffffffffffffff168373ffffffffffffffffffffffffffffffffffffffff167f17307eab39ab6107e8899845ad3d59bd9653f200f220920489ca2b5937696c318360405161186e9190611e8c565b60405180910390a3505050565b611886848484610fd4565b61189284848484611a0d565b6118d1576040517f08c379a00000000000000000000000000000000000000000000000000000000081526004016118c890612fce565b60405180910390fd5b50505050565b606060405180602001604052806000815250905090565b60606118f982610e33565b60006119036118d7565b90506000815111611923576040518060200160405280600081525061194e565b8061192d84611b94565b60405160200161193e9291906128c2565b6040516020818303038152906040525b915050919050565b60007f01ffc9a7000000000000000000000000000000000000000000000000000000007bffffffffffffffffffffffffffffffffffffffffffffffffffffffff1916827bffffffffffffffffffffffffffffffffffffffffffffffffffffffff1916149050919050565b60008073ffffffffffffffffffffffffffffffffffffffff166119e28361158e565b73ffffffffffffffffffffffffffffffffffffffff1614159050919050565b50505050565b50505050565b6000611a2e8473ffffffffffffffffffffffffffffffffffffffff16611c62565b15611b87578373ffffffffffffffffffffffffffffffffffffffff1663150b7a02611a57610e7e565b8786866040518563ffffffff1660e01b8152600401611a799493929190613043565b6020604051808303816000875af1925050508015611ab557506040513d601f19601f82011682018060405250810190611ab291906130a4565b60015b611b37573d8060008114611ae5576040519150601f19603f3d011682016040523d82523d6000602084013e611aea565b606091505b506000815103611b2f576040517f08c379a0000000000000000000000000000000000000000000000000000000008152600401611b2690612fce565b60405180910390fd5b805181602001fd5b63150b7a0260e01b7bffffffffffffffffffffffffffffffffffffffffffffffffffffffff1916817bffffffffffffffffffffffffffffffffffffffffffffffffffffffff191614915050611b8c565b600190505b949350505050565b606060006001611ba384611c85565b01905060008167ffffffffffffffff811115611bc257611bc16120e1565b5b6040519080825280601f01601f191660200182016040528015611bf45781602001600182028036833780820191505090505b509050600082602001820190505b600115611c57578080600190039150507f3031323334353637383961626364656600000000000000000000000000000000600a86061a8153600a8581611c4b57611c4a6130d1565b5b04945060008503611c02575b819350505050919050565b6000808273ffffffffffffffffffffffffffffffffffffffff163b119050919050565b600080600090507a184f03e93ff9f4daa797ed6e38ed64bf6a1f0100000000000000008310611ce3577a184f03e93ff9f4daa797ed6e38ed64bf6a1f0100000000000000008381611cd957611cd86130d1565b5b0492506040810190505b6d04ee2d6d415b85acef81000000008310611d20576d04ee2d6d415b85acef81000000008381611d1657611d156130d1565b5b0492506020810190505b662386f26fc100008310611d4f57662386f26fc100008381611d4557611d446130d1565b5b0492506010810190505b6305f5e1008310611d78576305f5e1008381611d6e57611d6d6130d1565b5b0492506008810190505b6127108310611d9d576127108381611d9357611d926130d1565b5b0492506004810190505b60648310611dc05760648381611db657611db56130d1565b5b0492506002810190505b600a8310611dcf576001810190505b80915050919050565b6000604051905090565b600080fd5b600080fd5b60007fffffffff0000000000000000000000000000000000000000000000000000000082169050919050565b611e2181611dec565b8114611e2c57600080fd5b50565b600081359050611e3e81611e18565b92915050565b600060208284031215611e5a57611e59611de2565b5b6000611e6884828501611e2f565b91505092915050565b60008115159050919050565b611e8681611e71565b82525050565b6000602082019050611ea16000830184611e7d565b92915050565b600081519050919050565b600082825260208201905092915050565b60005b83811015611ee1578082015181840152602081019050611ec6565b60008484015250505050565b6000601f19601f8301169050919050565b6000611f0982611ea7565b611f138185611eb2565b9350611f23818560208601611ec3565b611f2c81611eed565b840191505092915050565b60006020820190508181036000830152611f518184611efe565b905092915050565b6000819050919050565b611f6c81611f59565b8114611f7757600080fd5b50565b600081359050611f8981611f63565b92915050565b600060208284031215611fa557611fa4611de2565b5b6000611fb384828501611f7a565b91505092915050565b600073ffffffffffffffffffffffffffffffffffffffff82169050919050565b6000611fe782611fbc565b9050919050565b611ff781611fdc565b82525050565b60006020820190506120126000830184611fee565b92915050565b61202181611fdc565b811461202c57600080fd5b50565b60008135905061203e81612018565b92915050565b6000806040838503121561205b5761205a611de2565b5b60006120698582860161202f565b925050602061207a85828601611f7a565b9150509250929050565b60008060006060848603121561209d5761209c611de2565b5b60006120ab8682870161202f565b93505060206120bc8682870161202f565b92505060406120cd86828701611f7a565b9150509250925092565b600080fd5b600080fd5b7f4e487b7100000000000000000000000000000000000000000000000000000000600052604160045260246000fd5b61211982611eed565b810181811067ffffffffffffffff82111715612138576121376120e1565b5b80604052505050565b600061214b611dd8565b90506121578282612110565b919050565b600067ffffffffffffffff821115612177576121766120e1565b5b61218082611eed565b9050602081019050919050565b82818337600083830152505050565b60006121af6121aa8461215c565b612141565b9050828152602081018484840111156121cb576121ca6120dc565b5b6121d684828561218d565b509392505050565b600082601f8301126121f3576121f26120d7565b5b813561220384826020860161219c565b91505092915050565b6000806040838503121561222357612222611de2565b5b600083013567ffffffffffffffff81111561224157612240611de7565b5b61224d858286016121de565b925050602061225e85828601611f7a565b9150509250929050565b61227181611f59565b82525050565b600060208201905061228c6000830184612268565b92915050565b6000602082840312156122a8576122a7611de2565b5b60006122b68482850161202f565b91505092915050565b6122c881611e71565b81146122d357600080fd5b50565b6000813590506122e5816122bf565b92915050565b6000806040838503121561230257612301611de2565b5b60006123108582860161202f565b9250506020612321858286016122d6565b9150509250929050565b600067ffffffffffffffff821115612346576123456120e1565b5b61234f82611eed565b9050602081019050919050565b600061236f61236a8461232b565b612141565b90508281526020810184848401111561238b5761238a6120dc565b5b61239684828561218d565b509392505050565b600082601f8301126123b3576123b26120d7565b5b81356123c384826020860161235c565b91505092915050565b600080600080608085870312156123e6576123e5611de2565b5b60006123f48782880161202f565b94505060206124058782880161202f565b935050604061241687828801611f7a565b925050606085013567ffffffffffffffff81111561243757612436611de7565b5b6124438782880161239e565b91505092959194509250565b6000806040838503121561246657612465611de2565b5b60006124748582860161202f565b92505060206124858582860161202f565b9150509250929050565b7f4e487b7100000000000000000000000000000000000000000000000000000000600052602260045260246000fd5b600060028204905060018216806124d657607f821691505b6020821081036124e9576124e861248f565b5b50919050565b7f4552433732313a20617070726f76616c20746f2063757272656e74206f776e6560008201527f7200000000000000000000000000000000000000000000000000000000000000602082015250565b600061254b602183611eb2565b9150612556826124ef565b604082019050919050565b6000602082019050818103600083015261257a8161253e565b9050919050565b7f4552433732313a20617070726f76652063616c6c6572206973206e6f7420746f60008201527f6b656e206f776e6572206f7220617070726f76656420666f7220616c6c000000602082015250565b60006125dd603d83611eb2565b91506125e882612581565b604082019050919050565b6000602082019050818103600083015261260c816125d0565b9050919050565b7f4552433732313a2063616c6c6572206973206e6f7420746f6b656e206f776e6560008201527f72206f7220617070726f76656400000000000000000000000000000000000000602082015250565b600061266f602d83611eb2565b915061267a82612613565b604082019050919050565b6000602082019050818103600083015261269e81612662565b9050919050565b7f496e73756666696369656e74204554482073656e740000000000000000000000600082015250565b60006126db601583611eb2565b91506126e6826126a5565b602082019050919050565b6000602082019050818103600083015261270a816126ce565b9050919050565b7f4e487b7100000000000000000000000000000000000000000000000000000000600052601160045260246000fd5b600061274b82611f59565b91507fffffffffffffffffffffffffffffffffffffffffffffffffffffffffffffffff820361277d5761277c612711565b5b600182019050919050565b7f4552433732313a20696e76616c696420746f6b656e2049440000000000000000600082015250565b60006127be601883611eb2565b91506127c982612788565b602082019050919050565b600060208201905081810360008301526127ed816127b1565b9050919050565b7f4552433732313a2061646472657373207a65726f206973206e6f74206120766160008201527f6c6964206f776e65720000000000000000000000000000000000000000000000602082015250565b6000612850602983611eb2565b915061285b826127f4565b604082019050919050565b6000602082019050818103600083015261287f81612843565b9050919050565b600081905092915050565b600061289c82611ea7565b6128a68185612886565b93506128b6818560208601611ec3565b80840191505092915050565b60006128ce8285612891565b91506128da8284612891565b91508190509392505050565b7f4f776e61626c653a206e6577206f776e657220697320746865207a65726f206160008201527f6464726573730000000000000000000000000000000000000000000000000000602082015250565b6000612942602683611eb2565b915061294d826128e6565b604082019050919050565b6000602082019050818103600083015261297181612935565b9050919050565b7f4552433732313a207472616e736665722066726f6d20696e636f72726563742060008201527f6f776e6572000000000000000000000000000000000000000000000000000000602082015250565b60006129d4602583611eb2565b91506129df82612978565b604082019050919050565b60006020820190508181036000830152612a03816129c7565b9050919050565b7f4552433732313a207472616e7366657220746f20746865207a65726f2061646460008201527f7265737300000000000000000000000000000000000000000000000000000000602082015250565b6000612a66602483611eb2565b9150612a7182612a0a565b604082019050919050565b60006020820190508181036000830152612a9581612a59565b9050919050565b7f4552433732313a206d696e7420746f20746865207a65726f2061646472657373600082015250565b6000612ad2602083611eb2565b9150612add82612a9c565b602082019050919050565b60006020820190508181036000830152612b0181612ac5565b9050919050565b7f4552433732313a20746f6b656e20616c7265616479206d696e74656400000000600082015250565b6000612b3e601c83611eb2565b9150612b4982612b08565b602082019050919050565b60006020820190508181036000830152612b6d81612b31565b9050919050565b7f45524337323155524953746f726167653a2055524920736574206f66206e6f6e60008201527f6578697374656e7420746f6b656e000000000000000000000000000000000000602082015250565b6000612bd0602e83611eb2565b9150612bdb82612b74565b604082019050919050565b60006020820190508181036000830152612bff81612bc3565b9050919050565b60008190508160005260206000209050919050565b60006020601f8301049050919050565b600082821b905092915050565b600060088302612c687fffffffffffffffffffffffffffffffffffffffffffffffffffffffffffffffff82612c2b565b612c728683612c2b565b95508019841693508086168417925050509392505050565b6000819050919050565b6000612caf612caa612ca584611f59565b612c8a565b611f59565b9050919050565b6000819050919050565b612cc983612c94565b612cdd612cd582612cb6565b848454612c38565b825550505050565b600090565b612cf2612ce5565b612cfd818484612cc0565b505050565b5b81811015612d2157612d16600082612cea565b600181019050612d03565b5050565b601f821115612d6657612d3781612c06565b612d4084612c1b565b81016020851015612d4f578190505b612d63612d5b85612c1b565b830182612d02565b50505b505050565b600082821c905092915050565b6000612d8960001984600802612d6b565b1980831691505092915050565b6000612da28383612d78565b9150826002028217905092915050565b612dbb82611ea7565b67ffffffffffffffff811115612dd457612dd36120e1565b5b612dde82546124be565b612de9828285612d25565b600060209050601f831160018114612e1c5760008415612e0a578287015190505b612e148582612d96565b865550612e7c565b601f198416612e2a86612c06565b60005b82811015612e5257848901518255600182019150602085019450602081019050612e2d565b86831015612e6f5784890151612e6b601f891682612d78565b8355505b6001600288020188555050505b505050505050565b7f4f776e61626c653a2063616c6c6572206973206e6f7420746865206f776e6572600082015250565b6000612eba602083611eb2565b9150612ec582612e84565b602082019050919050565b60006020820190508181036000830152612ee981612ead565b9050919050565b7f4552433732313a20617070726f766520746f2063616c6c657200000000000000600082015250565b6000612f26601983611eb2565b9150612f3182612ef0565b602082019050919050565b60006020820190508181036000830152612f5581612f19565b9050919050565b7f4552433732313a207472616e7366657220746f206e6f6e20455243373231526560008201527f63656976657220696d706c656d656e7465720000000000000000000000000000602082015250565b6000612fb8603283611eb2565b9150612fc382612f5c565b604082019050919050565b60006020820190508181036000830152612fe781612fab565b9050919050565b600081519050919050565b600082825260208201905092915050565b600061301582612fee565b61301f8185612ff9565b935061302f818560208601611ec3565b61303881611eed565b840191505092915050565b60006080820190506130586000830187611fee565b6130656020830186611fee565b6130726040830185612268565b8181036060830152613084818461300a565b905095945050505050565b60008151905061309e81611e18565b92915050565b6000602082840312156130ba576130b9611de2565b5b60006130c88482850161308f565b91505092915050565b7f4e487b7100000000000000000000000000000000000000000000000000000000600052601260045260246000fdfea26469706673582212205b66fcd25963af0774b0f5385202e8b7be782f1cbc380f293fad6923bfe15f0764736f6c63430008110033",
  "linkReferences": {},
  "deployedLinkReferences": {}
}